:100000000C9434000C94A1040C948A040C945100B8
:100010000C9451000C9451000C9451000C9451001C
:100020000C9451000C9451000C9451000C9451000C
:100030000C9451000C9451000C9451000C945100FC
:100040000C945D040C9451000C9451000C945100DC
:100050000C9451000C9451000C9451000C945100DC
:100060000C9451000C94510011241FBECFEFD8E026
:10007000DEBFCDBF12E0A8E0B2E001C01D92AD30FE
:10008000B107E1F712E0A0E0B1E0E0E6F2E102C082
:1000900005900D92A830B107D9F70E9429040C945D
:1000A0002E090C940000DF93CF9300D00F92CDB7B0
:1000B000DEB7ECE7F0E08081ECE7F0E01082ACE73F
:1000C000B0E0ECE7F0E0808180648C93AAE7B0E0D8
:1000D000EAE7F0E0808180688C930F900F900F909A
:1000E000CF91DF910895DF93CF93CDB7DEB72A97F5
:1000F0000FB6F894DEBF0FBECDBFAAE7B0E0EAE7C7
:10010000F0E0808180648C93EAE7F0E08081882FC2
:1001100090E0807490700097B9F7E8E7F0E0808194
:10012000918190930C0280930B0280910B0290912D
:100130000C02CC01A0E0B0E0BC01CD010E94890618
:10014000DC01CB01BC01CD012AE038E240EA5BE3EF
:100150000E942F05DC01CB0189839A83AB83BC838A
:1001600080E00E948B03882371F080910A028170E5
:10017000882309F4A6C080910A028E7F80930A0228
:100180000E94B8049EC0A5E2B0E0E5E2F0E0808104
:1001900080688C931A8669817A818B819C8120E0AA
:1001A00030E040E050E00E942906882314F081E00E
:1001B0008A8781E09A8589278823C9F4198669810D
:1001C0007A818B819C8120E030E040E85FE30E94EF
:1001D0005906882314F481E0898781E0998589276D
:1001E000882329F4E7E4F0E080E480836AC018867D
:1001F00069817A818B819C8120E030E040E85FE377
:100200000E942906882314F081E0888781E0988580
:1002100089278823C9F41F8269817A818B819C8117
:1002200020E030E040E050E40E945906882314F4B6
:1002300081E08F8381E09F818927882329F4E7E487
:10024000F0E080E880833DC01E8269817A818B81E5
:100250009C8120E030E040E050E40E9429068823A1
:1002600014F081E08E8381E09E8189278823C9F480
:100270001D8269817A818B819C8120E030E040E49D
:1002800050E40E945906882314F481E08D8381E0B4
:100290009D818927882329F4E7E4F0E080EC8083BE
:1002A00010C069817A818B819C8120E030E040E43C
:1002B00050E40E942906882324F0E7E4F0E08FEF61
:1002C00080832A960FB6F894DEBF0FBECDBFCF91C4
:1002D000DF910895DF93CF9300D0CDB7DEB7898348
:1002E0006A838A81882309F0B7C089818730A9F0A1
:1002F0008981863091F08981853079F089818430D7
:1003000061F08981833049F08981823031F08981BF
:10031000813019F08981882331F5AAE2B0E0EAE260
:10032000F0E08081482F8981282F30E081E090E043
:1003300002C0880F991F2A95E2F7809584238C9339
:10034000ABE2B0E0EBE2F0E08081482F8981282F1A
:1003500030E081E090E0022E02C0880F991F0A94DD
:10036000E2F7842B8C9389818730A9F089818630CC
:1003700091F08981853079F08981843061F08981BB
:10038000833049F08981823031F08981813019F0E0
:100390008981882331F5A4E2B0E0E4E2F0E08081D5
:1003A000482F8981282F30E081E090E002C0880F3B
:1003B000991F2A95E2F7809584238C93A5E2B0E0FB
:1003C000E5E2F0E08081482F8981282F30E081E04C
:1003D00090E0022E02C0880F991F0A94E2F7842B46
:1003E0008C938981863091F08981853079F089817B
:1003F000843061F08981833049F08981823031F025
:100400008981813019F08981882331F5A7E2B0E034
:10041000E7E2F0E08081482F8981282F30E081E0F9
:1004200090E002C0880F991F2A95E2F780958423F7
:100430008C93A8E2B0E0E8E2F0E08081482F898167
:10044000282F30E081E090E0022E02C0880F991F33
:100450000A94E2F7842B8C938A81813009F07EC064
:1004600089818730A9F08981863091F08981853032
:1004700079F08981843061F08981833049F0898104
:10048000823031F08981813019F08981882399F493
:10049000AAE2B0E0EAE2F0E08081482F8981282FCB
:1004A00030E081E090E0022E02C0880F991F0A948C
:1004B000E2F7842B8C9389818730A9F0898186307B
:1004C00091F08981853079F08981843061F089816A
:1004D000833049F08981823031F08981813019F08F
:1004E0008981882399F4A4E2B0E0E4E2F0E080811D
:1004F000482F8981282F30E081E090E0022E02C051
:10050000880F991F0A94E2F7842B8C938981863097
:1005100091F08981853079F08981843061F0898119
:10052000833049F08981823031F08981813019F03E
:100530008981882399F4A7E2B0E0E7E2F0E08081C6
:10054000482F8981282F30E081E090E0022E02C000
:10055000880F991F0A94E2F7842B8C930F900F90C9
:10056000CF91DF910895DF93CF9300D0CDB7DEB761
:1005700089836A8389818730A9F08981863091F0E7
:100580008981853079F08981843061F08981833077
:1005900049F08981823031F08981813019F0898177
:1005A000882369F58A81813099F4ABE2B0E0EBE20F
:1005B000F0E08081482F8981282F30E081E090E0B1
:1005C000022E02C0880F991F0A94E2F7842B8C93A5
:1005D0008A818823A1F4ABE2B0E0EBE2F0E0808115
:1005E000482F8981282F30E081E090E0022E02C060
:1005F000880F991F0A94E2F7809584238C93898150
:100600008730A9F08981863091F08981853079F031
:100610008981843061F08981833049F08981823019
:1006200031F08981813019F08981882369F58A81C7
:10063000813099F4A5E2B0E0E5E2F0E08081482F56
:100640008981282F30E081E090E0022E02C0880FDF
:10065000991F0A94E2F7842B8C938A818823A1F452
:10066000A5E2B0E0E5E2F0E08081482F8981282F03
:1006700030E081E090E0022E02C0880F991F0A94BA
:10068000E2F7809584238C938981863091F089816B
:10069000853079F08981843061F08981833049F037
:1006A0008981823031F08981813019F089818823F4
:1006B00069F58A81813099F4A8E2B0E0E8E2F0E0DF
:1006C0008081482F8981282F30E081E090E0022E40
:1006D00002C0880F991F0A94E2F7842B8C938A81B9
:1006E0008823A1F4A8E2B0E0E8E2F0E08081482F9E
:1006F0008981282F30E081E090E0022E02C0880F2F
:10070000991F0A94E2F7809584238C930F900F90A1
:10071000CF91DF910895DF93CF9300D00F92CDB7A3
:10072000DEB7898389818730A9F08981863091F08D
:100730008981853079F08981843061F089818330C5
:1007400049F08981823031F08981813019F08981C5
:100750008823C1F4E9E2F0E08081282F30E089812C
:10076000882F90E0A90102C0559547958A95E2F738
:10077000CA0181709070882319F051E05A8360C0DB
:100780001A825EC089818730A9F08981863091F014
:100790008981853079F08981843061F08981833065
:1007A00049F08981823031F08981813019F0898165
:1007B0008823C1F4E3E2F0E08081282F30E08981D2
:1007C000882F90E0A90102C0559547958A95E2F7D8
:1007D000CA0181709070882319F051E05A8330C0AB
:1007E0001A822EC08981863091F08981853079F016
:1007F0008981843061F08981833049F08981823038
:1008000031F08981813019F089818823C1F4E6E2D1
:10081000F0E08081282F30E08981882F90E0A901C5
:1008200002C0559547958A95E2F7CA01817090708C
:10083000882319F051E05A8303C01A8201C002C014
:100840008A818B838B810F900F900F90CF91DF91D6
:100850000895DF93CF93CDB7DEB780E060E00E94CC
:100860006A0181E060E00E946A0182E060E00E942B
:100870006A0183E060E00E946A0186E061E00E9414
:100880006A0187E061E00E946A0180E061E00E9405
:10089000B30281E061E00E94B30282E061E00E9465
:1008A000B30283E061E00E94B3020E94CA040E9486
:1008B000530078940E947300FDCF1F920F920FB6E1
:1008C0000F9211248F939F93DF93CF93CDB7DEB711
:1008D00080910802909109020196909309028093F9
:1008E000080280910802909109028E33910548F028
:1008F00080910A02816080930A021092090210928C
:100900000802CF91DF919F918F910F900FBE0F90B2
:100910001F9018951F920F920FB60F9211248F936C
:10092000DF93CF93CDB7DEB780910A0284608093C6
:100930000A02CF91DF918F910F900FBE0F901F9001
:1009400018951F920F920FB60F9211248F93DF9379
:10095000CF93CDB7DEB780910A02826080930A02FE
:10096000CF91DF918F910F900FBE0F901F90189530
:10097000DF93CF93CDB7DEB7A5E2B0E0E5E2F0E0DC
:1009800080818F778C93E7E4F0E080E48083CF91DF
:10099000DF910895DF93CF93CDB7DEB7A4E4B0E045
:1009A000E4E4F0E0808183608C93A4E4B0E0E4E4CC
:1009B000F0E0808180688C93A4E4B0E0E4E4F0E0AF
:1009C00080818F7B8C93E6E4F0E01082A5E4B0E0B8
:1009D000E5E4F0E0808185608C93A5E4B0E0E5E497
:1009E000F0E080818D7F8C93AEE6B0E0EEE6F0E043
:1009F000808181608C93CF91DF910895DF93CF93B5
:100A0000CDB7DEB7A8E6B0E0E8E6F0E0808184602C
:100A10008C93ADE6B0E0EDE6F0E0808183608C93EE
:100A2000A9E6B0E0E9E6F0E0808185608C93A9E674
:100A3000B0E0E9E6F0E08081857F8C93A9E6B0E044
:100A4000E9E6F0E080818A608C93ADE3B0E0EDE30D
:100A5000F0E0808183608C93CF91DF910895A0E2D4
:100A6000B0E0E5E3F5E00C94F70869837A838B83C3
:100A70009C832D833E834F835887CE010196BE0110
:100A8000675F7F4F0E942608CE010596BE016F5E0C
:100A90007F4F0E9426089985923088F0898982309C
:100AA000C8F0943019F4823051F404C0843029F431
:100AB000923081F480E091E0C6C0923049F420E0A9
:100AC0009A858A89981321E02A87CE010996BBC0AE
:100AD000823049F420E09A858A89981321E02A8B94
:100AE000CE014196B0C02D843E844F8458886D88D5
:100AF0007E888F88988CEE24FF248701AA24BB244B
:100B0000650140E050E060E070E0E0E0F0E0C1014D
:100B100081709070892BE9F0E60CF71C081D191DF7
:100B20009A01AB012A0D3B1D4C1D5D1D80E090E03C
:100B3000A0E0B0E0E614F7040805190520F481E010
:100B400090E0A0E0B0E0BA01A901480F591F6A1F68
:100B50007B1FAA0CBB1CCC1CDD1C97FE08C081E0CF
:100B600090E0A0E0B0E0A82AB92ACA2ADB2A319690
:100B7000E032F10549F0660C771C881C991C5694EC
:100B8000479437942794C3CFFA85EA892B893C8907
:100B90008B859C85280F391F2E5F3F4F17C0CA01D8
:100BA00081709070892B61F016950795F794E79402
:100BB00080E090E0A0E0B0E8E82AF92A0A2B1B2B9D
:100BC00076956795579547952F5F3F4F77FDE7CF10
:100BD0000CC0440F551F661F771F17FD4160EE0CB8
:100BE000FF1C001F111F21503040403090E059077A
:100BF00090E0690790E4790760F32B8F3C8FDB016D
:100C0000CA018F779070A070B07080349105A105F3
:100C1000B10561F447FD0AC0E114F10401051105B5
:100C200029F0405C5F4F6F4F7F4F40781A8EFE1760
:100C300011F081E08A8F4D8F5E8F6F8F78A383E0F4
:100C4000898FCE0149960E945107A096E2E10C944B
:100C50001309A8E1B0E0EFE2F6E00C940309698320
:100C60007A838B839C832D833E834F83588789E0CF
:100C7000E82EF12CEC0EFD1ECE010196B7010E946C
:100C800026088E010F5E1F4FCE010596B8010E9407
:100C900026088985823040F08989823028F0C70192
:100CA000B8010E949E0801C08FEF6896E6E00C94A0
:100CB0001F09A8E1B0E0EFE5F6E00C9403096983B1
:100CC0007A838B839C832D833E834F83588789E06F
:100CD000E82EF12CEC0EFD1ECE010196B7010E940C
:100CE00026088E010F5E1F4FCE010596B8010E94A7
:100CF00026088985823040F08989823028F0C70132
:100D0000B8010E949E0801C081E06896E6E00C945C
:100D10001F09A8E0B0E0EFE8F6E00C94FF087B01C3
:100D20008C01611571058105910519F482E08983B3
:100D300060C083E089838EE1C82ED12CDC82CB8217
:100D4000ED82FE820F831887C801B7010E94020757
:100D5000FC013197F7FF3BC0222733272E1B3F0BA7
:100D600057016801022E04C0D694C794B794A79483
:100D70000A94D2F740E050E060E070E081E090E05B
:100D8000A0E0B0E004C0880F991FAA1FBB1F2A95DE
:100D9000D2F70197A109B1098E219F21A023B12388
:100DA0000097A105B10521F041E050E060E070E05E
:100DB0004A295B296C297D294D835E836F8378875F
:100DC0008EE190E08E1B9F0B9C838B8312C030972B
:100DD00081F00E2E04C0EE0CFF1C001F111F0A94A0
:100DE000D2F7ED82FE820F831887CE1ADF0ADC82EB
:100DF000CB821A82CE0101960E9451072896EAE022
:100E00000C941B09EF92FF920F931F937B018C01AF
:100E100080E0E81680E0F80681E0080780E0180727
:100E200088F48FEFE816F1040105110531F028F080
:100E300088E090E0A0E0B0E017C080E090E0A0E0A3
:100E4000B0E012C080E0E81680E0F80680E0080715
:100E500081E0180728F088E190E0A0E0B0E004C04D
:100E600080E190E0A0E0B0E020E230E040E050E03F
:100E7000281B390B4A0B5B0B04C016950795F7949A
:100E8000E7948A95D2F7F701E85FFE4F8081281B2F
:100E9000310941095109C9011F910F91FF90EF904C
:100EA0000895DF92EF92FF920F931F93FC01E4806D
:100EB000F58006811781D1808081823048F480E0FE
:100EC00090E0A0E1B0E0E82AF92A0A2B1B2BA5C08C
:100ED000843009F49FC0823021F4EE24FF2487017E
:100EE00005C0E114F1040105110519F4E0E0F0E09A
:100EF00096C0628173819FEF623879070CF05BC006
:100F000022E83FEF261B370B2A3131052CF020E079
:100F100030E040E050E02AC0B801A701022E04C032
:100F200076956795579547950A94D2F781E090E0BA
:100F3000A0E0B0E004C0880F991FAA1FBB1F2A952C
:100F4000D2F70197A109B1098E219F21A023B123D6
:100F50000097A105B10521F081E090E0A0E0B0E0AC
:100F60009A01AB01282B392B4A2B5B2BDA01C901E3
:100F70008F779070A070B07080349105A105B10595
:100F800039F427FF09C0205C3F4F4F4F5F4F04C02B
:100F9000215C3F4F4F4F5F4FE0E0F0E02030A0E09A
:100FA0003A07A0E04A07A0E45A0710F0E1E0F0E0B9
:100FB00079018A0127C06038710564F5FB01E158A9
:100FC000FF4FD801C7018F779070A070B070803448
:100FD0009105A105B10539F4E7FE0DC080E490E06C
:100FE000A0E0B0E004C08FE390E0A0E0B0E0E80E45
:100FF000F91E0A1F1B1F17FF05C016950795F794CA
:10100000E794319687E016950795F794E7948A95CB
:10101000D1F705C0EE24FF248701EFEFF0E06E2F3B
:10102000679566276795902F9F77D794DD24D7948F
:101030008E2F8695492F462B582F5D29B701CA015F
:101040001F910F91FF90EF90DF900895FC01DB015D
:10105000408151812281622F6F7770E0221F222709
:10106000221F9381892F880F822B282F30E0991F10
:101070009927991F11969C93119721153105A9F570
:10108000411551056105710511F482E037C082E810
:101090009FEF13969C938E9312979A01AB0167E092
:1010A000220F331F441F551F6A95D1F783E08C939D
:1010B0000DC0220F331F441F551F12968D919C9116
:1010C0001397019713969C938E931297203080E08C
:1010D000380780E0480780E4580758F314962D93AA
:1010E0003D934D935C93179708952F3F310579F405
:1010F000411551056105710519F484E08C9308953B
:1011000064FF03C081E08C9312C01C9210C02F5763
:10111000304013963C932E93129783E08C9387E094
:10112000440F551F661F771F8A95D1F77064149678
:101130004D935D936D937C93179708951F93DC01F6
:10114000FB019C91923008F447C08081823008F402
:1011500043C0943051F411961C91843099F58181EB
:10116000682F70E0611B71093FC0843021F092301C
:1011700031F48230B9F18181882389F12DC0119633
:101180001C9111978230F1F081811817D9F41296D1
:101190002D913C911397828193818217930794F04C
:1011A00028173907BCF014968D919D910D90BC9134
:1011B000A02D2481358146815781281739074A0798
:1011C0005B0718F4112341F00AC082179307A407A4
:1011D000B50740F4112319F061E070E005C06FEF2E
:1011E0007FEF02C060E070E0CB011F9108952F9265
:1011F0003F924F925F926F927F928F929F92AF92A7
:10120000BF92CF92DF92EF92FF920F931F93CF93F3
:10121000DF93CDB7DEB7CA1BDB0B0FB6F894DEBF8A
:101220000FBECDBF09942A88398848885F846E84B0
:101230007D848C849B84AA84B984C884DF80EE80FA
:10124000FD800C811B81AA81B981CE0FD11D0FB603
:10125000F894DEBF0FBECDBFED010895F894FFCF27
:10126000000000000000000000010202030303036D
:101270000404040404040404050505050505050526
:101280000505050505050505060606060606060606
:1012900006060606060606060606060606060606EE
:1012A00006060606060606060707070707070707D6
:1012B00007070707070707070707070707070707BE
:1012C00007070707070707070707070707070707AE
:1012D000070707070707070707070707070707079E
:1012E0000707070707070707080808080808080886
:1012F000080808080808080808080808080808086E
:10130000080808080808080808080808080808085D
:10131000080808080808080808080808080808084D
:10132000080808080808080808080808080808083D
:10133000080808080808080808080808080808082D
:10134000080808080808080808080808080808081D
:10135000080808080808080808080808080808080D
:08136000080808080808080845
:00000001FF
