:100000000C9434000C9482040C949C040C945100C5
:100010000C9451000C9451000C9451000C9451001C
:100020000C9451000C9451000C9451000C9451000C
:100030000C9451000C9451000C9451000C945100FC
:100040000C94B6040C9451000C9451000C94510083
:100050000C9451000C9451000C9451000C945100DC
:100060000C9451000C94510011241FBECFEFD8E026
:10007000DEBFCDBF11E0A8E0B1E001C01D92AD3000
:10008000B107E1F711E0A0E0B1E0EAEEF7E102C06C
:1000900005900D92A830B107D9F70E9425040C9461
:1000A000F30B0C940000DF93CF93CDB7DEB7ECE7F2
:1000B000F0E01082ACE7B0E0ECE7F0E08081806433
:1000C0008C93AAE7B0E0EAE7F0E0808180688C9347
:1000D000CF91DF910895DF93CF93CDB7DEB76C97C3
:1000E0000FB6F894DEBF0FBECDBFAAE7B0E0EAE7D7
:1000F000F0E0808180648C93EAE7F0E08081882FD3
:1001000090E0807490700097B9F380E090E0A8ECE4
:10011000B2E48D8B9E8BAF8BB88F6D897E898F8972
:10012000988D2BEA3AEA4AEA50E40E948C07DC01F7
:10013000CB01898B9A8BAB8BBC8B69897A898B8934
:100140009C8920E030E040E85FE30E949209882328
:100150001CF481E0888B91C069897A898B899C899C
:1001600020E030E04FE753E40E94320918160CF00B
:100170007BC06D897E898F89988D20E030E04AE7C9
:1001800054E40E948608DC01CB018C879D87AE87F2
:10019000BF876C857D858E859F8520E030E04AE7AE
:1001A00055E40E948C07DC01CB0188879987AA87D8
:1001B000BB87688579858A859B8520E030E040E8AB
:1001C0005FE30E94920988232CF481E090E09F83F2
:1001D0008E833FC0688579858A859B8520E03FEFC7
:1001E0004FE757E40E94320918164CF56C857D855F
:1001F0008E859F8520E030E040E251E40E948C072C
:10020000DC01CB01BC01CD010E94B605DC01CB01B4
:100210009F838E830FC080E991E09D838C838C81C6
:100220009D810197F1F79D838C838E819F8101973A
:100230009F838E838E819F81009769F724C0688594
:1002400079858A859B850E94B605DC01CB019F8359
:100250008E838E819F819B838A838A819B81019774
:10026000F1F79B838A830FC069897A898B899C897E
:100270000E94B605DC01CB01888B8889898389813E
:100280008A95F1F78983E8E7F0E08081882F90E094
:100290009A8F898FE9E7F0E08081882F90E0982F8E
:1002A00088279C8F8B8F2B8D3C8D898D9A8D820F0B
:1002B000931F9C8F8B8F8B8D9C8D6C960FB6F894B3
:1002C000DEBF0FBECDBFCF91DF910895DF93CF93F7
:1002D00000D0CDB7DEB789836A838A81882309F08D
:1002E000B7C089818730A9F08981863091F08981F2
:1002F000853079F08981843061F08981833049F0DB
:100300008981823031F08981813019F08981882397
:1003100031F5AAE2B0E0EAE2F0E08081482F89817D
:10032000282F30E081E090E002C0880F991F2A95C5
:10033000E2F7809584238C93ABE2B0E0EBE2F0E04F
:100340008081482F8981282F30E081E090E0022EC3
:1003500002C0880F991F0A94E2F7842B8C9389813D
:100360008730A9F08981863091F08981853079F0D4
:100370008981843061F08981833049F089818230BC
:1003800031F08981813019F08981882331F5A4E227
:10039000B0E0E4E2F0E08081482F8981282F30E04E
:1003A00081E090E002C0880F991F2A95E2F78095BE
:1003B00084238C93A5E2B0E0E5E2F0E08081482F51
:1003C0008981282F30E081E090E0022E02C0880F62
:1003D000991F0A94E2F7842B8C938981863091F0DF
:1003E0008981853079F08981843061F08981833019
:1003F00049F08981823031F08981813019F0898119
:10040000882331F5A7E2B0E0E7E2F0E08081482FF1
:100410008981282F30E081E090E002C0880F991F89
:100420002A95E2F7809584238C93A8E2B0E0E8E275
:10043000F0E08081482F8981282F30E081E090E032
:10044000022E02C0880F991F0A94E2F7842B8C9326
:100450008A81813009F07EC089818730A9F0898145
:10046000863091F08981853079F08981843061F01E
:100470008981833049F08981823031F089818130EE
:1004800019F08981882399F4AAE2B0E0EAE2F0E069
:100490008081482F8981282F30E081E090E0022E72
:1004A00002C0880F991F0A94E2F7842B8C938981EC
:1004B0008730A9F08981863091F08981853079F083
:1004C0008981843061F08981833049F0898182306B
:1004D00031F08981813019F08981882399F4A4E26F
:1004E000B0E0E4E2F0E08081482F8981282F30E0FD
:1004F00081E090E0022E02C0880F991F0A94E2F773
:10050000842B8C938981863091F08981853079F0B4
:100510008981843061F08981833049F0898182301A
:1005200031F08981813019F08981882399F4A7E21B
:10053000B0E0E7E2F0E08081482F8981282F30E0A9
:1005400081E090E0022E02C0880F991F0A94E2F722
:10055000842B8C930F900F90CF91DF910895DF93B0
:10056000CF9300D0CDB7DEB789836A838981873086
:10057000A9F08981863091F08981853079F089816F
:10058000843061F08981833049F08981823031F093
:100590008981813019F08981882369F58A818130C8
:1005A00099F4ABE2B0E0EBE2F0E08081482F898182
:1005B000282F30E081E090E0022E02C0880F991FC2
:1005C0000A94E2F7842B8C938A818823A1F4ABE20E
:1005D000B0E0EBE2F0E08081482F8981282F30E005
:1005E00081E090E0022E02C0880F991F0A94E2F782
:1005F000809584238C9389818730A9F08981863006
:1006000091F08981853079F08981843061F0898128
:10061000833049F08981823031F08981813019F04D
:100620008981882369F58A81813099F4A5E2B0E057
:10063000E5E2F0E08081482F8981282F30E081E0D9
:1006400090E0022E02C0880F991F0A94E2F7842BD3
:100650008C938A818823A1F4A5E2B0E0E5E2F0E082
:100660008081482F8981282F30E081E090E0022EA0
:1006700002C0880F991F0A94E2F7809584238C9317
:100680008981863091F08981853079F08981843043
:1006900061F08981833049F08981823031F089812C
:1006A000813019F08981882369F58A81813099F434
:1006B000A8E2B0E0E8E2F0E08081482F8981282FAD
:1006C00030E081E090E0022E02C0880F991F0A946A
:1006D000E2F7842B8C938A818823A1F4A8E2B0E00E
:1006E000E8E2F0E08081482F8981282F30E081E026
:1006F00090E0022E02C0880F991F0A94E2F78095BD
:1007000084238C930F900F90CF91DF910895DF9306
:10071000CF9300D00F92CDB7DEB789838981873020
:10072000A9F08981863091F08981853079F08981BD
:10073000843061F08981833049F08981823031F0E1
:100740008981813019F089818823C1F4E9E2F0E0E0
:100750008081282F30E08981882F90E0A90102C094
:10076000559547958A95E2F7CA0181709070882364
:1007700019F051E05A8360C01A825EC089818730C7
:10078000A9F08981863091F08981853079F089815D
:10079000843061F08981833049F08981823031F081
:1007A0008981813019F089818823C1F4E3E2F0E086
:1007B0008081282F30E08981882F90E0A90102C034
:1007C000559547958A95E2F7CA0181709070882304
:1007D00019F051E05A8330C01A822EC089818630C8
:1007E00091F08981853079F08981843061F0898147
:1007F000833049F08981823031F08981813019F06C
:1008000089818823C1F4E6E2F0E08081282F30E07E
:100810008981882F90E0A90102C0559547958A9556
:10082000E2F7CA0181709070882319F051E05A8371
:1008300003C01A8201C002C08A818B838B810F9012
:100840000F900F90CF91DF910895DF93CF93CDB7A5
:10085000DEB77894E8E2F0E0108282E060E00E9487
:10086000660183E060E00E94660186E061E00E942C
:100870006601ADE3B0E0EDE3F0E0808183608C934E
:10088000A9E6B0E0E9E6F0E0808181608C93A9E61A
:10089000B0E0E9E6F0E080818D7F8C93A9E6B0E0DE
:1008A000E9E6F0E0808184608C93A9E6B0E0E9E6B7
:1008B000F0E08081877F8C93E4E4F0E01082E5E44F
:1008C000F0E01082A5E4B0E0E5E4F0E0808185602E
:1008D0008C93A5E4B0E0E5E4F0E080818D7F8C931B
:1008E000AEE6B0E0EEE6F0E0808181608C93E6E475
:1008F000F0E084E680830E9453000E94E4040E949A
:100900009705FDCF1F920F920FB60F9211248F9370
:100910009F93DF93CF93CDB7DEB78091080191E02D
:10092000892780930801CF91DF919F918F910F903C
:100930000FBE0F901F9018951F920F920FB60F9237
:1009400011248F939F93DF93CF93CDB7DEB7809120
:10095000090191E0892780930901CF91DF919F914F
:100960008F910F900FBE0F901F9018951F920F92AE
:100970000FB60F9211242F938F939F93DF93CF93F2
:10098000CDB7DEB780910B0190910C010196909349
:100990000C0180930B0180910B0190910C0121E0DF
:1009A000833F920739F410920C0110920B0181E001
:1009B00080930A01CF91DF919F918F912F910F909A
:1009C0000FBE0F901F901895DF93CF93CDB7DEB772
:1009D00086E061E00E946601A4E4B0E0E4E4F0E0B7
:1009E000808183608C93A4E4B0E0E4E4F0E0808153
:1009F00080688C93A4E4B0E0E4E4F0E080818F7B35
:100A00008C93E6E4F0E01082A5E4B0E0E5E4F0E0E9
:100A1000808185608C93A5E4B0E0E5E4F0E080811E
:100A20008D7F8C93CF91DF910895DF93CF93CDB7D6
:100A3000DEB786E060E00E94AF02AAE7B0E0EAE736
:100A4000F0E080818F7B8C93CF91DF910895DF93CD
:100A5000CF93CDB7DEB7AAE7B0E0EAE7F0E0808158
:100A60008F7B8C93E7E4F0E08FE78083CF91DF9179
:100A70000895DF93CF9300D0CDB7DEB70E94530027
:100A800080910A01813009F04DC010920A010E9444
:100A90006B009A83898389819A818333910540F41D
:100AA00089819A81009721F0E7E4F0E010823AC052
:100AB00089819A818333910550F089819A81893C9B
:100AC000910528F4E7E4F0E08FE380832BC089816F
:100AD0009A81893C910558F089819A8121E0853F6E
:100AE000920728F4E7E4F0E08FE780831BC0898158
:100AF0009A8121E0853F920758F089819A8123E00D
:100B0000893E920728F4E7E4F0E08EEB80830AC088
:100B100089819A8123E0893E920720F0E7E4F0E0A2
:100B20008EEF80830F900F90CF91DF910895DF9328
:100B3000CF93CDB7DEB780910901813039F4809130
:100B40000801813019F40E9439050DC08091090116
:100B5000882339F480910801813019F40E94270517
:100B600002C00E941505CF91DF910895EF92FF9288
:100B70000F931F937B018C0120E030E040E05FE4A5
:100B80000E94620988238CF0C801B70120E030E0A0
:100B900040E05FE40E942E070E94C2099B01AC0165
:100BA000205030404040504806C0C801B7010E9464
:100BB000C2099B01AC01B901CA011F910F91FF90BD
:100BC000EF900895A0E0B0E0E8EEF5E00C94BC0BE7
:100BD000DC012B01FA019C91923008F439C1EB0140
:100BE0008881823008F433C1943069F4843009F08C
:100BF0002FC111969C9111978981981709F428C1EA
:100C0000A0E0B1E025C1843009F421C18230A9F40B
:100C1000923009F01DC19A01AD0188E0EA01099006
:100C2000AE01E90109929E018150C1F7E20189817B
:100C300011969C918923818308C1923009F407C1E0
:100C400012962D903C901397EB018A819B8114960C
:100C5000AD90BD90CD90DC901797EC80FD800E811B
:100C60001F819101281B390BB90137FF04C066278A
:100C70007727621B730B603271050CF061C012168E
:100C800013066CF537014801062E04C0969487942C
:100C9000779467940A94D2F721E030E040E050E086
:100CA00004C0220F331F441F551F6A95D2F72150ED
:100CB0003040404050402E213F21402351232115F8
:100CC00031054105510521F021E030E040E050E0E0
:100CD00079018A01E628F728082919293CC0232B25
:100CE000D1F1260E371E35014601062E04C096941A
:100CF0008794779467940A94D2F721E030E040E03B
:100D000050E004C0220F331F441F551F6A95D2F7CD
:100D100021503040404050402A213B214C215D2150
:100D2000211531054105510521F021E030E040E079
:100D300050E059016A01A628B728C828D9280BC055
:100D4000821593052CF01C01AA24BB24650103C065
:100D5000EE24FF24870111969C91D20111968C916B
:100D6000981709F445C0992339F0A80197012A1969
:100D70003B094C095D0906C0A60195012E193F09E2
:100D8000400B510B57FD08C011823382228224830D
:100D90003583468357831DC081E08183338222825D
:100DA00088279927DC01821B930BA40BB50B848346
:100DB0009583A683B7830DC0220F331F441F551F91
:100DC000248335834683578382819381019793835C
:100DD00082832481358146815781DA01C9010197D7
:100DE000A109B1098F5F9F4FAF4FBF4328F30BC0DD
:100DF000918333822282EA0CFB1C0C1D1D1DE482B0
:100E0000F5820683178383E08083248135814681C0
:100E1000578157FF1AC0C901AA2797FDA095BA2F7D
:100E200081709070A070B070569547953795279552
:100E3000822B932BA42BB52B84839583A683B78316
:100E400082819381019693838283DF0101C0D20165
:100E5000CD01CDB7DEB7E2E10C94D80BA0E2B0E053
:100E6000E4E3F7E00C94C80B69837A838B839C835B
:100E70002D833E834F835887E9E0EE2EF12CEC0E54
:100E8000FD1ECE010196B7010E94EB0A8E010F5E96
:100E90001F4FCE010596B8010E94EB0A8A8991E0A6
:100EA00089278A8BC701B801AE01475E5F4F0E9458
:100EB000E2050E94160AA096E6E00C94E40BA0E27C
:100EC000B0E0E5E6F7E00C94C80B69837A838B8386
:100ED0009C832D833E834F835887F9E0EF2EF12CBE
:100EE000EC0EFD1ECE010196B7010E94EB0A8E01A9
:100EF0000F5E1F4FCE010596B8010E94EB0AC70195
:100F0000B801AE01475E5F4F0E94E2050E94160ADB
:100F1000A096E6E00C94E40BA0E2B0E0E2E9F7E092
:100F20000C94BC0B69837A838B839C832D833E83D3
:100F30004F835887CE010196BE01675F7F4F0E94A5
:100F4000EB0ACE010596BE016F5E7F4F0E94EB0A51
:100F50009985923088F089898230C8F0943019F4EC
:100F6000823051F404C0843029F4923081F480E05E
:100F700091E0C6C0923049F420E09A858A8998139E
:100F800021E02A87CE010996BBC0823049F420E0D7
:100F90009A858A89981321E02A8BCE014196B0C0A8
:100FA0002D843E844F8458886D887E888F88988CE5
:100FB000EE24FF248701AA24BB24650140E050E011
:100FC00060E070E0E0E0F0E0C10181709070892B9A
:100FD000E9F0E60CF71C081D191D9A01AB012A0D5A
:100FE0003B1D4C1D5D1D80E090E0A0E0B0E0E614EC
:100FF000F7040805190520F481E090E0A0E0B0E0D6
:10100000BA01A901480F591F6A1F7B1FAA0CBB1CFC
:10101000CC1CDD1C97FE08C081E090E0A0E0B0E0B1
:10102000A82AB92ACA2ADB2A3196E032F10549F00A
:10103000660C771C881C991C569447943794279407
:10104000C3CFFA85EA892B893C898B859C85280F3B
:10105000391F2E5F3F4F17C0CA0181709070892BD6
:1010600061F016950795F794E79480E090E0A0E092
:10107000B0E8E82AF92A0A2B1B2B76956795579535
:1010800047952F5F3F4F77FDE7CF0CC0440F551FAB
:10109000661F771F17FD4160EE0CFF1C001F111F1C
:1010A00021503040403090E0590790E0690790E4CB
:1010B000790760F32B8F3C8FDB01CA018F7790702B
:1010C000A070B07080349105A105B10561F447FDB1
:1010D0000AC0E114F1040105110529F0405C5F4FDD
:1010E0006F4F7F4F40781A8EFE1711F081E08A8F84
:1010F0004D8F5E8F6F8F78A383E0898FCE014996E5
:101100000E94160AA096E2E10C94D80BA8E1B0E088
:10111000ECE8F8E00C94C40B69837A838B839C839E
:101120002D833E834F835887B9E0EB2EF12CEC0ED4
:10113000FD1ECE010196B7010E94EB0A8E010F5EE3
:101140001F4FCE010596B8010E94EB0A2985223077
:1011500008F47EC03989323010F4B8017CC08A8529
:101160009A8989278A87243011F0223031F4231795
:1011700009F06EC060E071E06EC0343039F41D8655
:101180001E861F86188A1C861B8604C0323021F4F6
:1011900084E08987B7015FC02B853C858B899C895A
:1011A000281B390B3C872B87ED84FE840F8518891B
:1011B000AD88BE88CF88D88CEA14FB040C051D05C9
:1011C00040F4EE0CFF1C001F111F215030403C87E3
:1011D0002B8720E030E040E050E080E090E0A0E0AD
:1011E000B0E460E070E0EA14FB040C051D0540F07B
:1011F000282B392B4A2B5B2BEA18FB080C091D09FD
:10120000B695A79597958795EE0CFF1C001F111FAB
:101210006F5F7F4F6F31710531F7DA01C9018F7749
:101220009070A070B07080349105A105B10561F493
:1012300027FD0AC0E114F1040105110529F0205C25
:101240003F4F4F4F5F4F20782D873E874F87588BFA
:10125000BE01675F7F4FCB010E94160A6896EAE0E5
:101260000C94E00BA8E1B0E0E8E3F9E00C94C80BC3
:1012700069837A838B839C832D833E834F83588736
:1012800089E0E82EF12CEC0EFD1ECE010196B7018F
:101290000E94EB0A8E010F5E1F4FCE010596B8012A
:1012A0000E94EB0A8985823040F08989823028F0DB
:1012B000C701B8010E94630B01C08FEF6896E6E09A
:1012C0000C94E40BA8E1B0E0E8E6F9E00C94C80B5C
:1012D00069837A838B839C832D833E834F835887D6
:1012E00089E0E82EF12CEC0EFD1ECE010196B7012F
:1012F0000E94EB0A8E010F5E1F4FCE010596B801CA
:101300000E94EB0A8985823040F08989823028F07A
:10131000C701B8010E94630B01C08FEF6896E6E039
:101320000C94E40BA8E1B0E0E8E9F9E00C94C80BF8
:1013300069837A838B839C832D833E834F83588775
:1013400089E0E82EF12CEC0EFD1ECE010196B701CE
:101350000E94EB0A8E010F5E1F4FCE010596B80169
:101360000E94EB0A8985823040F08989823028F01A
:10137000C701B8010E94630B01C081E06896E6E0F6
:101380000C94E40BACE0B0E0E8ECF9E00C94CC0B8E
:1013900069837A838B839C83CE010196BE016B5F48
:1013A0007F4F0E94EB0A8D81823061F1823050F1D3
:1013B000843021F48E81882351F12EC02F8138850D
:1013C00037FD20C06E812F3131051CF06623F9F006
:1013D00023C08EE190E0821B930B29853A854B85D3
:1013E0005C8504C056954795379527958A95D2F721
:1013F0006623B1F050954095309521953F4F4F4F62
:101400005F4F0EC020E030E040E050E009C02FEF19
:101410003FEF4FEF5FE704C020E030E040E050E8EE
:10142000B901CA012C96E2E00C94E80BDF92EF922E
:10143000FF920F931F93FC01E480F58006811781D2
:10144000D1808081823048F480E090E0A0E1B0E07B
:10145000E82AF92A0A2B1B2BA5C0843009F49FC067
:10146000823021F4EE24FF24870105C0E114F10449
:101470000105110519F4E0E0F0E096C06281738186
:101480009FEF623879070CF05BC022E83FEF261B24
:10149000370B2A3131052CF020E030E040E050E0FD
:1014A0002AC0B801A701022E04C07695679557950A
:1014B00047950A94D2F781E090E0A0E0B0E004C044
:1014C000880F991FAA1FBB1F2A95D2F70197A10960
:1014D000B1098E219F21A023B1230097A105B10559
:1014E00021F081E090E0A0E0B0E09A01AB01282B70
:1014F000392B4A2B5B2BDA01C9018F779070A070D2
:10150000B07080349105A105B10539F427FF09C0F9
:10151000205C3F4F4F4F5F4F04C0215C3F4F4F4F08
:101520005F4FE0E0F0E02030A0E03A07A0E04A079B
:10153000A0E45A0710F0E1E0F0E079018A0127C049
:101540006038710564F5FB01E158FF4FD801C70110
:101550008F779070A070B07080349105A105B105AF
:1015600039F4E7FE0DC080E490E0A0E0B0E004C0F4
:101570008FE390E0A0E0B0E0E80EF91E0A1F1B1F09
:1015800017FF05C016950795F794E794319687E005
:1015900016950795F794E7948A95D1F705C0EE2440
:1015A000FF248701EFEFF0E06E2F679566276795C0
:1015B000902F9F77D794DD24D7948E2F8695492F2F
:1015C000462B582F5D29B701CA011F910F91FF903B
:1015D000EF90DF900895FC01DB0140815181228171
:1015E000622F6F7770E0221F2227221F9381892F9D
:1015F000880F822B282F30E0991F9927991F119669
:101600009C93119721153105A9F5411551056105E7
:10161000710511F482E037C082E89FEF13969C9326
:101620008E9312979A01AB0167E0220F331F441F7C
:10163000551F6A95D1F783E08C930DC0220F331F9D
:10164000441F551F12968D919C91139701971396E5
:101650009C938E931297203080E0380780E04807F3
:1016600080E4580758F314962D933D934D935C9363
:10167000179708952F3F310579F4411551056105FC
:10168000710519F484E08C93089564FF03C081E030
:101690008C9312C01C9210C02F57304013963C936D
:1016A0002E93129783E08C9387E0440F551F661F9B
:1016B000771F8A95D1F7706414964D935D936D935F
:1016C0007C93179708951F93DC01FB019C91923046
:1016D00008F447C08081823008F443C0943051F44C
:1016E00011961C91843099F58181682F70E0611BFF
:1016F00071093FC0843021F0923031F48230B9F169
:101700008181882389F12DC011961C911197823017
:10171000F1F081811817D9F412962D913C9113970D
:10172000828193818217930794F028173907BCF0C0
:1017300014968D919D910D90BC91A02D24813581A1
:1017400046815781281739074A075B0718F4112388
:1017500041F00AC082179307A407B50740F411238C
:1017600019F061E070E005C06FEF7FEF02C060E04C
:1017700070E0CB011F9108952F923F924F925F929C
:101780006F927F928F929F92AF92BF92CF92DF9291
:10179000EF92FF920F931F93CF93DF93CDB7DEB7F6
:1017A000CA1BDB0B0FB6F894DEBF0FBECDBF09948A
:1017B0002A88398848885F846E847D848C849B84E1
:1017C000AA84B984C884DF80EE80FD800C811B81EF
:1017D000AA81B981CE0FD11D0FB6F894DEBF0FBE1E
:0A17E000CDBFED010895F894FFCF8E
:0817EA000000000000000000F7
:00000001FF
