:100000000C9434000C94080A0C94F1090C945100DF
:100010000C9451000C9451000C9451000C9451001C
:100020000C9451000C9451000C9451000C9451000C
:100030000C9451000C9451000C9451000C945100FC
:100040000C9451000C9451000C9451000C945100EC
:100050000C9451000C9451000C9451000C945100DC
:100060000C9451000C94510011241FBECFEFD8E026
:10007000DEBFCDBF11E0A8E0B1E001C01D92A93004
:10008000B107E1F711E0A0E0B1E0E4EBF2E202C079
:1000900005900D92A830B107D9F70E941C080C9466
:1000A00058110C940000DF93CF9300D0CDB7DEB78A
:1000B00089836A838981882351F48A81882339F46A
:1000C000AAE2B0E0EAE2F0E080818E7F8C93898141
:1000D000813051F48A81882339F4AAE2B0E0EAE25F
:1000E000F0E080818D7F8C938981823051F48A8108
:1000F000882339F4AAE2B0E0EAE2F0E080818B7F65
:100100008C938981833051F48A81882339F4AAE25F
:10011000B0E0EAE2F0E08081877F8C9389818430CF
:1001200051F48A81882339F4AAE2B0E0EAE2F0E0EF
:1001300080818F7E8C938981853051F48A818823D8
:1001400039F4AAE2B0E0EAE2F0E080818F7D8C939E
:100150008981863051F48A81882339F4AAE2B0E09B
:10016000EAE2F0E080818F7B8C938981873051F4C3
:100170008A81882339F4AAE2B0E0EAE2F0E08081E3
:100180008F778C938981882351F48A81813039F467
:10019000AAE2B0E0EAE2F0E0808181608C9389819C
:1001A000813051F48A81813039F4AAE2B0E0EAE288
:1001B000F0E0808182608C938981823051F48A8161
:1001C000813039F4AAE2B0E0EAE2F0E080818460B4
:1001D0008C938981833051F48A81813039F4AAE289
:1001E000B0E0EAE2F0E0808188608C93898184301D
:1001F00051F48A81813039F4AAE2B0E0EAE2F0E019
:10020000808180618C938981853051F48A8181302D
:1002100039F4AAE2B0E0EAE2F0E0808180628C93F7
:100220008981863051F48A81813039F4AAE2B0E0C4
:10023000EAE2F0E0808180648C938981873051F418
:100240008A81813039F4AAE2B0E0EAE2F0E080810C
:1002500080688C938981882351F48A81882339F4BA
:10026000A4E2B0E0E4E2F0E080818E7F8C938981AB
:10027000813051F48A81882339F4A4E2B0E0E4E2C9
:10028000F0E080818D7F8C938981823051F48A8166
:10029000882339F4A4E2B0E0E4E2F0E080818B7FCF
:1002A0008C938981833051F48A81882339F4A4E2C4
:1002B000B0E0E4E2F0E08081877F8C938981843034
:1002C00051F48A81882339F4A4E2B0E0E4E2F0E05A
:1002D00080818F7E8C938981853051F48A81882337
:1002E00039F4A4E2B0E0E4E2F0E080818F7D8C9309
:1002F0008981863051F48A81882339F4A4E2B0E000
:10030000E4E2F0E080818F7B8C938981873051F427
:100310008A81882339F4A4E2B0E0E4E2F0E080814D
:100320008F778C938981882351F48A81813039F4C5
:10033000A4E2B0E0E4E2F0E0808181608C93898106
:10034000813051F48A81813039F4A4E2B0E0E4E2F2
:10035000F0E0808182608C938981823051F48A81BF
:10036000813039F4A4E2B0E0E4E2F0E0808184601E
:100370008C938981833051F48A81813039F4A4E2ED
:10038000B0E0E4E2F0E0808188608C938981843081
:1003900051F48A81813039F4A4E2B0E0E4E2F0E083
:1003A000808180618C938981853051F48A8181308C
:1003B00039F4A4E2B0E0E4E2F0E0808180628C9362
:1003C0008981863051F48A81813039F4A4E2B0E029
:1003D000E4E2F0E0808180648C938981873051F47D
:1003E0008A81813039F4A4E2B0E0E4E2F0E0808177
:1003F00080688C938981882351F48A81882339F419
:10040000A7E2B0E0E7E2F0E080818E7F8C93898103
:10041000813051F48A81882339F4A7E2B0E0E7E221
:10042000F0E080818D7F8C938981823051F48A81C4
:10043000882339F4A7E2B0E0E7E2F0E080818B7F27
:100440008C938981833051F48A81882339F4A7E21F
:10045000B0E0E7E2F0E08081877F8C93898184308F
:1004600051F48A81882339F4A7E2B0E0E7E2F0E0B2
:1004700080818F7E8C938981853051F48A81882395
:1004800039F4A7E2B0E0E7E2F0E080818F7D8C9361
:100490008981863051F48A81882339F4A7E2B0E05B
:1004A000E7E2F0E080818F7B8C938981882351F48F
:1004B0008A81813039F4A7E2B0E0E7E2F0E08081A0
:1004C00081608C938981813051F48A81813039F443
:1004D000A7E2B0E0E7E2F0E0808182608C9389815E
:1004E000823051F48A81813039F4A7E2B0E0E7E24A
:1004F000F0E0808184608C938981833051F48A811B
:10050000813039F4A7E2B0E0E7E2F0E08081886072
:100510008C938981843051F48A81813039F4A7E247
:10052000B0E0E7E2F0E0808180618C9389818530E2
:1005300051F48A81813039F4A7E2B0E0E7E2F0E0DB
:10054000808180628C938981863051F48A818130E8
:1005500039F4A7E2B0E0E7E2F0E0808180648C93B8
:100560008981882351F48A81813039F4A5E2B0E091
:10057000E5E2F0E0808181608C938981813051F4E3
:100580008A81813039F4A5E2B0E0E5E2F0E08081D3
:1005900082608C938981823051F48A81813039F470
:1005A000A5E2B0E0E5E2F0E0808184608C9389818F
:1005B000833051F48A81813039F4A5E2B0E0E5E27C
:1005C000F0E0808188608C938981843051F48A8145
:1005D000813039F4A5E2B0E0E5E2F0E080818061AD
:1005E0008C938981853051F48A81813039F4A5E278
:1005F000B0E0E5E2F0E0808180628C938981863012
:1006000051F48A81813039F4A5E2B0E0E5E2F0E00E
:10061000808180648C938981873051F48A81813014
:1006200039F4A5E2B0E0E5E2F0E0808180688C93E7
:100630008981882351F48A81813039F4ABE2B0E0BA
:10064000EBE2F0E0808181608C938981813051F40C
:100650008A81813039F4ABE2B0E0EBE2F0E08081F6
:1006600082608C938981823051F48A81813039F49F
:10067000ABE2B0E0EBE2F0E0808184608C938981B2
:10068000833051F48A81813039F4ABE2B0E0EBE29F
:10069000F0E0808188608C938981843051F48A8174
:1006A000813039F4ABE2B0E0EBE2F0E080818061D0
:1006B0008C938981853051F48A81813039F4ABE2A1
:1006C000B0E0EBE2F0E0808180628C93898186303B
:1006D00051F48A81813039F4ABE2B0E0EBE2F0E032
:1006E000808180648C938981873051F48A81813044
:1006F00039F4ABE2B0E0EBE2F0E0808180688C930B
:100700008981882351F48A81813039F4A8E2B0E0EC
:10071000E8E2F0E0808181608C938981813051F43E
:100720008A81813039F4A8E2B0E0E8E2F0E080812B
:1007300082608C938981823051F48A81813039F4CE
:10074000A8E2B0E0E8E2F0E0808184608C938981E7
:10075000833051F48A81813039F4A8E2B0E0E8E2D4
:10076000F0E0808188608C938981843051F48A81A3
:10077000813039F4A8E2B0E0E8E2F0E08081806105
:100780008C938981853051F48A81813039F4A8E2D3
:10079000B0E0E8E2F0E0808180628C93898186306D
:1007A00051F48A81813039F4A8E2B0E0E8E2F0E067
:1007B000808180648C930F900F90CF91DF9108958A
:1007C000DF93CF93CDB7DEB769970FB6F894DEBF4E
:1007D0000FBECDBF888F888D882389F41F8AE9E2F8
:1007E000F0E080818F8B8F89882F90E081709070EE
:1007F000882319F081E0898FB3C1198EB1C1888D2A
:10080000813089F41E8AE9E2F0E080818E8B8E8946
:10081000882F90E082709070009719F081E0898FA6
:100820009FC1198E9DC1888D823089F41D8AE9E2AD
:10083000F0E080818D8B8D89882F90E0847090709E
:10084000009719F081E0898F8BC1198E89C1888D3D
:10085000833089F41C8AE9E2F0E080818C8B8C89FA
:10086000882F90E088709070009719F081E0898F50
:1008700077C1198E75C1888D843089F41B8AE9E2AD
:10088000F0E080818B8B8B89882F90E08071907055
:10089000009719F081E0898F63C1198E61C1888D3D
:1008A000853089F41A8AE9E2F0E080818A8B8A89AE
:1008B000882F90E080729070009719F081E0898F06
:1008C0004FC1198E4DC1888D863089F4198AE9E2AD
:1008D000F0E08081898B8989882F90E08074907006
:1008E000009719F081E0898F3BC1198E39C1888D3D
:1008F000873069F4188AE9E2F0E08081888B888982
:1009000088231CF481E0898F2BC1198E29C1888D21
:10091000882389F41F86E3E2F0E080818F878F854A
:10092000882F90E081709070882319F081E0898F82
:1009300017C1198E15C1888D813089F41E86E3E2B6
:10094000F0E080818E878E85882F90E08270907095
:10095000009719F081E0898F03C1198E01C1888D3C
:10096000823089F41D86E3E2F0E080818D878D85F9
:10097000882F90E084709070009719F081E0898F43
:10098000EFC0198EEDC0888D833089F41C86E3E2B8
:10099000F0E080818C878C85882F90E08870907043
:1009A000009719F081E0898FDBC0198ED9C0888D3E
:1009B000843089F41B86E3E2F0E080818B878B85AD
:1009C000882F90E080719070009719F081E0898FF6
:1009D000C7C0198EC5C0888D853089F41A86E3E2B8
:1009E000F0E080818A878A85882F90E080729070FD
:1009F000009719F081E0898FB3C0198EB1C0888D3E
:100A0000863089F41986E3E2F0E080818987898560
:100A1000882F90E080749070009719F081E0898FA2
:100A20009FC0198E9DC0888D873069F41886E3E2D7
:100A3000F0E080818887888588231CF481E0898F95
:100A40008FC0198E8DC0888D882389F41F82E6E2BD
:100A5000F0E080818F838F81882F90E0817090708B
:100A6000882319F081E0898F7BC0198E79C0888D29
:100A7000813089F41E82E6E2F0E080818E838E81EF
:100A8000882F90E082709070009719F081E0898F34
:100A900067C0198E65C0888D823089F41D82E6E2B8
:100AA000F0E080818D838D81882F90E0847090703C
:100AB000009719F081E0898F53C0198E51C0888D3D
:100AC000833089F41C82E6E2F0E080818C838C81A3
:100AD000882F90E088709070009719F081E0898FDE
:100AE0003FC0198E3DC0888D843089F41B82E6E2B8
:100AF000F0E080818B838B81882F90E080719070F3
:100B0000009719F081E0898F2BC0198E29C0888D3C
:100B1000853089F41A82E6E2F0E080818A838A8156
:100B2000882F90E080729070009719F081E0898F93
:100B300017C0198E15C0888D863089F41982E6E2B7
:100B4000F0E0808189838981882F90E080749070A3
:100B5000009719F081E0898F03C0198E01C0198EAA
:100B6000898D69960FB6F894DEBF0FBECDBFCF91C9
:100B7000DF910895DF93CF9300D0CDB7DEB789839F
:100B80006A838981882351F48A81813039F4ABE208
:100B9000B0E0EBE2F0E0808181608C938981882372
:100BA00051F48A81882339F4ABE2B0E0EBE2F0E063
:100BB00080818E7F8C938981813051F48A8181304C
:100BC00039F4ABE2B0E0EBE2F0E0808182608C933C
:100BD0008981813051F48A81882339F4ABE2B0E015
:100BE000EBE2F0E080818D7F8C938981823051F43B
:100BF0008A81813039F4ABE2B0E0EBE2F0E0808151
:100C000084608C938981823051F48A81882339F4FD
:100C1000ABE2B0E0EBE2F0E080818B7F8C938981E6
:100C2000833051F48A81813039F4ABE2B0E0EBE2F9
:100C3000F0E0808188608C938981833051F48A81CF
:100C4000882339F4ABE2B0E0EBE2F0E08081877F0B
:100C50008C938981843051F48A81813039F4ABE2FC
:100C6000B0E0EBE2F0E0808180618C938981843098
:100C700051F48A81882339F4ABE2B0E0EBE2F0E092
:100C800080818F7E8C938981853051F48A81813077
:100C900039F4ABE2B0E0EBE2F0E0808180628C936B
:100CA0008981853051F48A81882339F4ABE2B0E040
:100CB000EBE2F0E080818F7D8C938981863051F466
:100CC0008A81813039F4ABE2B0E0EBE2F0E0808180
:100CD00080648C938981863051F48A81882339F429
:100CE000ABE2B0E0EBE2F0E080818F7B8C93898116
:100CF000873051F48A81813039F4ABE2B0E0EBE225
:100D0000F0E0808180688C938981873051F48A81FA
:100D1000882339F4ABE2B0E0EBE2F0E080818F773A
:100D20008C938981882351F48A81813039F4A5E23A
:100D3000B0E0E5E2F0E0808181608C9389818823D6
:100D400051F48A81882339F4A5E2B0E0E5E2F0E0CD
:100D500080818E7F8C938981813051F48A818130AA
:100D600039F4A5E2B0E0E5E2F0E0808182608C93A6
:100D70008981813051F48A81882339F4A5E2B0E079
:100D8000E5E2F0E080818D7F8C938981823051F49F
:100D90008A81813039F4A5E2B0E0E5E2F0E08081BB
:100DA00084608C938981823051F48A81882339F45C
:100DB000A5E2B0E0E5E2F0E080818B7F8C93898151
:100DC000833051F48A81813039F4A5E2B0E0E5E264
:100DD000F0E0808188608C938981833051F48A812E
:100DE000882339F4A5E2B0E0E5E2F0E08081877F76
:100DF0008C938981843051F48A81813039F4A5E261
:100E0000B0E0E5E2F0E0808180618C9389818430FC
:100E100051F48A81882339F4A5E2B0E0E5E2F0E0FC
:100E200080818F7E8C938981853051F48A818130D5
:100E300039F4A5E2B0E0E5E2F0E0808180628C93D5
:100E40008981853051F48A81882339F4A5E2B0E0A4
:100E5000E5E2F0E080818F7D8C938981863051F4CA
:100E60008A81813039F4A5E2B0E0E5E2F0E08081EA
:100E700080648C938981863051F48A81882339F487
:100E8000A5E2B0E0E5E2F0E080818F7B8C93898180
:100E9000873051F48A81813039F4A5E2B0E0E5E28F
:100EA000F0E0808180688C938981873051F48A8159
:100EB000882339F4A5E2B0E0E5E2F0E080818F77A5
:100EC0008C938981882351F48A81813039F4A8E296
:100ED000B0E0E8E2F0E0808181608C938981882332
:100EE00051F48A81882339F4A8E2B0E0E8E2F0E026
:100EF00080818E7F8C938981813051F48A81813009
:100F000039F4A8E2B0E0E8E2F0E0808182608C93FE
:100F10008981813051F48A81882339F4A8E2B0E0D4
:100F2000E8E2F0E080818D7F8C938981823051F4FA
:100F30008A81813039F4A8E2B0E0E8E2F0E0808113
:100F400084608C938981823051F48A81882339F4BA
:100F5000A8E2B0E0E8E2F0E080818B7F8C938981A9
:100F6000833051F48A81813039F4A8E2B0E0E8E2BC
:100F7000F0E0808188608C938981833051F48A818C
:100F8000882339F4A8E2B0E0E8E2F0E08081877FCE
:100F90008C938981843051F48A81813039F4A8E2BC
:100FA000B0E0E8E2F0E0808180618C938981843058
:100FB00051F48A81882339F4A8E2B0E0E8E2F0E055
:100FC00080818F7E8C938981853051F48A81813034
:100FD00039F4A8E2B0E0E8E2F0E0808180628C932E
:100FE0008981853051F48A81882339F4A8E2B0E000
:100FF000E8E2F0E080818F7D8C938981863051F426
:101000008A81813039F4A8E2B0E0E8E2F0E0808142
:1010100080648C938981863051F48A81882339F4E5
:10102000A8E2B0E0E8E2F0E080818F7B8C930F9043
:101030000F90CF91DF910895DF93CF93CDB7DEB7B7
:10104000AA970FB6F894DEBF0FBECDBF87E061E070
:101050000E94530081E061E00E94530083E060E061
:101060000E94530082E060E00E94530083E061E050
:101070000E94BA0582E061E00E94BA05A9E6B0E0EC
:10108000E9E6F0E0808185608C93A9E6B0E0E9E6CE
:10109000F0E08081857F8C93ADE3B0E0EDE3F0E09C
:1010A000808183608C937894809108018E7F8093F7
:1010B0000801809108018D7F8093080180910801CB
:1010C0008170882309F4F2C080910801827088231E
:1010D00009F0ECC00E94260B80E090E8ABE3B6E498
:1010E0008FA398A7A9A7BAA76FA178A589A59AA544
:1010F00020E030E04AE755E40E949D0DDC01CB0181
:101100008BA39CA3ADA3BEA36BA17CA18DA19EA12B
:1011100020E030E040E85FE30E94F70E88232CF4E3
:1011200081E090E09AA389A33FC06BA17CA18DA12F
:101130009EA120E03FEF4FE757E40E94970E18165C
:101140004CF56FA178A589A59AA520E030E040E292
:1011500051E40E949D0DDC01CB01BC01CD010E9438
:10116000C70BDC01CB019AA389A30FC080E991E0F2
:1011700098A38F8F8F8D98A10197F1F798A38F8FE8
:1011800089A19AA101979AA389A389A19AA10097FD
:1011900069F714C06BA17CA18DA19EA10E94C70B11
:1011A000DC01CB019AA389A389A19AA19E8F8D8F7F
:1011B0008D8D9E8D0197F1F79E8F8D8F8091080107
:1011C0008E7F8093080180E090E4ACE1B6E4898FE3
:1011D0009A8FAB8FBC8F698D7A8D8B8D9C8D20E023
:1011E00030E04AE755E40E949D0DDC01CB018D8B78
:1011F0009E8BAF8BB88F6D897E898F89988D20E00B
:1012000030E040E85FE30E94F70E88232CF481E091
:1012100090E09C8B8B8B3FC06D897E898F89988DE8
:1012200020E03FEF4FE757E40E94970E18164CF569
:10123000698D7A8D8B8D9C8D20E030E040E251E409
:101240000E949D0DDC01CB01BC01CD010E94C70BAA
:10125000DC01CB019C8B8B8B0FC080E991E09A8BDA
:10126000898B89899A890197F1F79A8B898B8B8968
:101270009C8901979C8B8B8B8B899C89009769F744
:101280001DCF6D897E898F89988D0E94C70BDC01E7
:10129000CB019C8B8B8B8B899C89988B8F878F85BF
:1012A00098890197F1F7988B8F8708CF8091080173
:1012B0008170882341F4809108018270882319F09D
:1012C0000E94350BFBCE809108018170882309F4C0
:1012D00085C0809108018270882309F47FC00E9434
:1012E0001F0A809108018E7F809308018091080178
:1012F0008D7F8093080180E090E0AAEFB4E48B87B3
:101300009C87AD87BE876B857C858D859E8520E01B
:1013100030E04AE755E40E949D0DDC01CB018F834C
:101320009887A987BA876F81788589859A8520E013
:1013300030E040E85FE30E94F70E88232CF481E060
:1013400090E09E838D833FC06F81788589859A85E3
:1013500020E03FEF4FE757E40E94970E18164CF538
:101360006B857C858D859E8520E030E040E251E4F0
:101370000E949D0DDC01CB01BC01CD010E94C70B79
:10138000DC01CB019E838D830FC080E991E09C83BB
:101390008B838B819C810197F1F79C838B838D815B
:1013A0009E8101979E838D838D819E81009769F731
:1013B00085CE6F81788589859A850E94C70BDC016F
:1013C000CB019E838D838D819E819A8389838981C0
:1013D0009A810197F1F79A83898370CE0E941F0A40
:1013E0006DCE1F920F920FB60F9211248F93DF9341
:1013F000CF93CDB7DEB7809108018160809308015B
:10140000CF91DF918F910F900FBE0F901F90189585
:101410001F920F920FB60F9211248F93DF93CF93E9
:10142000CDB7DEB780910801826080930801CF912B
:10143000DF918F910F900FBE0F901F901895DF9343
:10144000CF93CDB7DEB76C970FB6F894DEBF0FBE63
:10145000CDBF87E061E00E94BA0581E061E00E94B3
:10146000BA0580E090E0AAEFB4E4898F9A8FAB8F41
:10147000BC8F698D7A8D8B8D9C8D20E030E04AE7A2
:1014800055E40E949D0DDC01CB018D8B9E8BAF8BB3
:10149000B88F6D897E898F89988D20E030E040E893
:1014A0005FE30E94F70E88232CF481E090E09C8B90
:1014B0008B8B3FC06D897E898F89988D20E03FEFAF
:1014C0004FE757E40E94970E18164CF5698D7A8DF8
:1014D0008B8D9C8D20E030E040E251E40E949D0D18
:1014E000DC01CB01BC01CD010E94C70BDC01CB01AB
:1014F0009C8B8B8B0FC080E991E09A8B898B8989BB
:101500009A890197F1F79A8B898B8B899C8901972E
:101510009C8B8B8B8B899C89009769F714C06D8994
:101520007E898F89988D0E94C70BDC01CB019C8B33
:101530008B8B8B899C89988B8F878F859889019756
:10154000F1F7988B8F8787E060E00E94BA0581E011
:1015500060E00E94BA0580E090E0AAEFB4E48B87D7
:101560009C87AD87BE876B857C858D859E8520E0B9
:1015700030E04AE755E40E949D0DDC01CB018F83EA
:101580009887A987BA876F81788589859A8520E0B1
:1015900030E040E85FE30E94F70E88232CF481E0FE
:1015A00090E09E838D833FC06F81788589859A8581
:1015B00020E03FEF4FE757E40E94970E18164CF5D6
:1015C0006B857C858D859E8520E030E040E251E48E
:1015D0000E949D0DDC01CB01BC01CD010E94C70B17
:1015E000DC01CB019E838D830FC080E991E09C8359
:1015F0008B838B819C810197F1F79C838B838D81F9
:101600009E8101979E838D838D819E81009769F7CE
:1016100014C06F81788589859A850E94C70BDC018B
:10162000CB019E838D838D819E819A83898389815D
:101630009A810197F1F79A8389836C960FB6F89493
:10164000DEBF0FBECDBFCF91DF910895DF93CF9363
:10165000CDB7DEB787E061E00E94BA0581E061E0C6
:101660000E94BA05CF91DF910895DF93CF93CDB754
:10167000DEB72E970FB6F894DEBF0FBECDBF87E062
:1016800060E00E94BA0581E060E00E94BA058091A6
:1016900008018E7F8093080180E090E0AAEFB4E417
:1016A0008B879C87AD87BE876B857C858D859E8566
:1016B00020E030E04AE755E40E949D0DDC01CB01BB
:1016C0008F839887A987BA876F81788589859A855E
:1016D00020E030E040E85FE30E94F70E88232CF41E
:1016E00081E090E09E838D833FC06F8178858985FE
:1016F0009A8520E03FEF4FE757E40E94970E1816B7
:101700004CF56B857C858D859E8520E030E040E240
:1017100051E40E949D0DDC01CB01BC01CD010E9472
:10172000C70BDC01CB019E838D830FC080E991E064
:101730009C838B838B819C810197F1F79C838B83A6
:101740008D819E8101979E838D838D819E810097DF
:1017500069F714C06F81788589859A850E94C70BC7
:10176000DC01CB019E838D838D819E819A83898349
:1017700089819A810197F1F79A8389832E960FB612
:10178000F894DEBF0FBECDBFCF91DF910895EF92E9
:10179000FF920F931F937B018C0120E030E040E02B
:1017A0005FE40E94C70E88238CF0C801B70120E0D7
:1017B00030E040E05FE40E943F0D0E94270F9B0154
:1017C000AC01205030404040504806C0C801B7012D
:1017D0000E94270F9B01AC01B901CA011F910F9113
:1017E000FF90EF900895A0E0B0E0E9EFFBE00C94EB
:1017F0002111DC012B01FA019C91923008F439C1CE
:10180000EB018881823008F433C1943069F484306C
:1018100009F02FC111969C9111978981981709F4AD
:1018200028C1A0E0B1E025C1843009F421C1823093
:10183000A9F4923009F01DC19A01AD0188E0EA01D6
:101840000990AE01E90109929E018150C1F7E201C0
:10185000898111969C918923818308C1923009F472
:1018600007C112962D903C901397EB018A819B81C2
:101870001496AD90BD90CD90DC901797EC80FD80D4
:101880000E811F819101281B390BB90137FF04C05C
:1018900066277727621B730B603271050CF061C0FD
:1018A000121613066CF537014801062E04C09694F3
:1018B0008794779467940A94D2F721E030E040E06F
:1018C00050E004C0220F331F441F551F6A95D2F702
:1018D00021503040404050402E213F214023512391
:1018E000211531054105510521F021E030E040E0AE
:1018F00050E079018A01E628F728082919293CC017
:10190000232BD1F1260E371E35014601062E04C0C9
:1019100096948794779467940A94D2F721E030E004
:1019200040E050E004C0220F331F441F551F6A954A
:10193000D2F721503040404050402A213B214C21D9
:101940005D21211531054105510521F021E030E0EF
:1019500040E050E059016A01A628B728C828D928D4
:101960000BC0821593052CF01C01AA24BB24650131
:1019700003C0EE24FF24870111969C91D201119699
:101980008C91981709F445C0992339F0A801970163
:101990002A193B094C095D0906C0A60195012E19BB
:1019A0003F09400B510B57FD08C011823382228240
:1019B00024833583468357831DC081E0818333822E
:1019C000228288279927DC01821B930BA40BB50B7D
:1019D00084839583A683B7830DC0220F331F441FD2
:1019E000551F2483358346835783828193810197D2
:1019F000938382832481358146815781DA01C9012D
:101A00000197A109B1098F5F9F4FAF4FBF4328F3E3
:101A10000BC0918333822282EA0CFB1C0C1D1D1D1E
:101A2000E482F5820683178383E0808324813581F5
:101A30004681578157FF1AC0C901AA2797FDA09573
:101A4000BA2F81709070A070B070569547953795F9
:101A50002795822B932BA42BB52B84839583A68368
:101A6000B78382819381019693838283DF0101C0D2
:101A7000D201CD01CDB7DEB7E2E10C943D11A0E279
:101A8000B0E0E5E4FDE00C942D1169837A838B834B
:101A90009C832D833E834F835887E9E0EE2EF12C03
:101AA000EC0EFD1ECE010196B7010E9450108E0172
:101AB0000F5E1F4FCE010596B8010E9450108A8913
:101AC00091E089278A8BC701B801AE01475E5F4F5D
:101AD0000E94F30B0E947B0FA096E6E00C94491144
:101AE000A0E2B0E0E6E7FDE00C942D1169837A8373
:101AF0008B839C832D833E834F835887F9E0EF2EA1
:101B0000F12CEC0EFD1ECE010196B7010E94501083
:101B10008E010F5E1F4FCE010596B8010E94501036
:101B2000C701B801AE01475E5F4F0E94F30B0E94F0
:101B30007B0FA096E6E00C944911A0E2B0E0E3EA46
:101B4000FDE00C94211169837A838B839C832D8320
:101B50003E834F835887CE010196BE01675F7F4F5A
:101B60000E945010CE010596BE016F5E7F4F0E940D
:101B700050109985923088F089898230C8F094306D
:101B800019F4823051F404C0843029F4923081F485
:101B900080E091E0C6C0923049F420E09A858A89BD
:101BA000981321E02A87CE010996BBC0823049F400
:101BB00020E09A858A89981321E02A8BCE014196EC
:101BC000B0C02D843E844F8458886D887E888F886D
:101BD000988CEE24FF248701AA24BB24650140E0F1
:101BE00050E060E070E0E0E0F0E0C10181709070F2
:101BF000892BE9F0E60CF71C081D191D9A01AB01B1
:101C00002A0D3B1D4C1D5D1D80E090E0A0E0B0E082
:101C1000E614F7040805190520F481E090E0A0E03F
:101C2000B0E0BA01A901480F591F6A1F7B1FAA0C17
:101C3000BB1CCC1CDD1C97FE08C081E090E0A0E03E
:101C4000B0E0A82AB92ACA2ADB2A3196E032F10587
:101C500049F0660C771C881C991C5694479437945D
:101C60002794C3CFFA85EA892B893C898B859C858B
:101C7000280F391F2E5F3F4F17C0CA018170907027
:101C8000892B61F016950795F794E79480E090E032
:101C9000A0E0B0E8E82AF92A0A2B1B2B7695679575
:101CA000579547952F5F3F4F77FDE7CF0CC0440F07
:101CB000551F661F771F17FD4160EE0CFF1C001FAC
:101CC000111F21503040403090E0590790E06907E3
:101CD00090E4790760F32B8F3C8FDB01CA018F778B
:101CE0009070A070B07080349105A105B10561F4C9
:101CF00047FD0AC0E114F1040105110529F0405C1B
:101D00005F4F6F4F7F4F40781A8EFE1711F081E0C2
:101D10008A8F4D8F5E8F6F8F78A383E0898FCE017E
:101D200049960E947B0FA096E2E10C943D11A8E138
:101D3000B0E0EDE9FEE00C942D1169837A838B838A
:101D40009C832D833E834F83588789E0E82EF12CB6
:101D5000EC0EFD1ECE010196B7010E9450108E01BF
:101D60000F5E1F4FCE010596B8010E945010898565
:101D7000823040F08989823028F0C701B8010E9482
:101D8000C81001C08FEF6896E6E00C944911A8E1F5
:101D9000B0E0EDECFEE00C942D1169837A838B8327
:101DA0009C832D833E834F83588789E0E82EF12C56
:101DB000EC0EFD1ECE010196B7010E9450108E015F
:101DC0000F5E1F4FCE010596B8010E945010898505
:101DD000823040F08989823028F0C701B8010E9422
:101DE000C81001C08FEF6896E6E00C944911A8E195
:101DF000B0E0EDEFFEE00C942D1169837A838B83C4
:101E00009C832D833E834F83588789E0E82EF12CF5
:101E1000EC0EFD1ECE010196B7010E9450108E01FE
:101E20000F5E1F4FCE010596B8010E9450108985A4
:101E3000823040F08989823028F0C701B8010E94C1
:101E4000C81001C081E06896E6E00C944911ACE04E
:101E5000B0E0EDE2FFE00C94311169837A838B836B
:101E60009C83CE010196BE016B5F7F4F0E94501094
:101E70008D81823061F1823050F1843021F48E8185
:101E8000882351F12EC02F81388537FD20C06E8107
:101E90002F3131051CF06623F9F023C08EE190E06C
:101EA000821B930B29853A854B855C8504C056952A
:101EB0004795379527958A95D2F76623B1F05095C7
:101EC0004095309521953F4F4F4F5F4F0EC020E01A
:101ED00030E040E050E009C02FEF3FEF4FEF5FE709
:101EE00004C020E030E040E050E8B901CA012C967F
:101EF000E2E00C944D11DF92EF92FF920F931F934B
:101F0000FC01E480F58006811781D18080818230D8
:101F100048F480E090E0A0E1B0E0E82AF92A0A2B3A
:101F20001B2BA5C0843009F49FC0823021F4EE241D
:101F3000FF24870105C0E114F1040105110519F41E
:101F4000E0E0F0E096C0628173819FEF623879072C
:101F50000CF05BC022E83FEF261B370B2A3131051E
:101F60002CF020E030E040E050E02AC0B801A701AA
:101F7000022E04C076956795579547950A94D2F737
:101F800081E090E0A0E0B0E004C0880F991FAA1F94
:101F9000BB1F2A95D2F70197A109B1098E219F2174
:101FA000A023B1230097A105B10521F081E090E0C5
:101FB000A0E0B0E09A01AB01282B392B4A2B5B2B18
:101FC000DA01C9018F779070A070B07080349105EC
:101FD000A105B10539F427FF09C0205C3F4F4F4FE1
:101FE0005F4F04C0215C3F4F4F4F5F4FE0E0F0E098
:101FF0002030A0E03A07A0E04A07A0E45A0710F01A
:10200000E1E0F0E079018A0127C06038710564F5EC
:10201000FB01E158FF4FD801C7018F779070A07086
:10202000B07080349105A105B10539F4E7FE0DC00B
:1020300080E490E0A0E0B0E004C08FE390E0A0E096
:10204000B0E0E80EF91E0A1F1B1F17FF05C016950A
:102050000795F794E794319687E016950795F794DE
:10206000E7948A95D1F705C0EE24FF248701EFEFAE
:10207000F0E06E2F679566276795902F9F77D7942E
:10208000DD24D7948E2F8695492F462B582F5D2916
:10209000B701CA011F910F91FF90EF90DF90089553
:1020A000FC01DB01408151812281622F6F7770E05A
:1020B000221F2227221F9381892F880F822B282FEE
:1020C00030E0991F9927991F11969C93119721151C
:1020D0003105A9F5411551056105710511F482E03D
:1020E00037C082E89FEF13969C938E9312979A01C4
:1020F000AB0167E0220F331F441F551F6A95D1F7CC
:1021000083E08C930DC0220F331F441F551F12967E
:102110008D919C911397019713969C938E93129790
:10212000203080E0380780E0480780E4580758F303
:1021300014962D933D934D935C93179708952F3FDD
:10214000310579F4411551056105710519F484E0F3
:102150008C93089564FF03C081E08C9312C01C929D
:1021600010C02F57304013963C932E93129783E064
:102170008C9387E0440F551F661F771F8A95D1F710
:10218000706414964D935D936D937C9317970895A7
:102190001F93DC01FB019C91923008F447C08081C1
:1021A000823008F443C0943051F411961C9184306D
:1021B00099F58181682F70E0611B71093FC08430FF
:1021C00021F0923031F48230B9F18181882389F194
:1021D0002DC011961C9111978230F1F08181181752
:1021E000D9F412962D913C91139782819381821795
:1021F000930794F028173907BCF014968D919D91A0
:102200000D90BC91A02D24813581468157812817DE
:1022100039074A075B0718F4112341F00AC08217F7
:102220009307A407B50740F4112319F061E070E0AB
:1022300005C06FEF7FEF02C060E070E0CB011F913F
:1022400008952F923F924F925F926F927F928F925A
:102250009F92AF92BF92CF92DF92EF92FF920F9335
:102260001F93CF93DF93CDB7DEB7CA1BDB0B0FB63F
:10227000F894DEBF0FBECDBF09942A8839884888FC
:102280005F846E847D848C849B84AA84B984C88492
:10229000DF80EE80FD800C811B81AA81B981CE0F89
:1022A000D11D0FB6F894DEBF0FBECDBFED0108956E
:0422B000F894FFCFD0
:0822B400000000000000000022
:00000001FF
